:020000040800F2
:10000000883100200501000849110008CF010008CF
:1000100045110008CF0C0008051C00080000000076
:100020000000000000000000000000004513000870
:100030007D0E000800000000570100085917000855
:100040001F0100081F0100081F0100081F01000810
:100050001F0100081F0100081F0100081F01000800
:100060001F0100081F0100081F0100081F010008F0
:100070001F0100081F0100081F0100081F010008E0
:100080001F0100081F0100081F0100081F010008D0
:100090001F0100081F0100081F0100081F010008C0
:1000A0001F0100081F0100081F0100081F010008B0
:1000B0001F0100081F0100081F0100081F010008A0
:1000C0001F0100081F0100081F0100081F01000890
:1000D0001F010008C917000811180008411800087E
:1000E0001F0100081F0100081F010008DFF810D0E1
:1000F00000F04AFD00480047C50C0008AFF300803F
:10010000883100200648804706480047FEE7FEE7A2
:10011000FEE7FEE7FEE7FEE7FEE7FEE7FEE7FEE7B7
:1001200069170008ED000008EFF3108072B6704701
:1001300080F310887047334A1368012B04D04FF0C6
:1001400001031360304A1060304A116030484FF0AC
:10015000805101607047EFF3108272B62948016840
:1001600091B14FF0000101602748016829B1EFF318
:10017000098121E9F00F00680160244909680968D4
:10018000B1E8F00F81F3098882F310884EF0040E75
:1001900070471E4908601C494FF00000086019496B
:1001A0004FF0010008601B484FF47F01D0F8002099
:1001B00041EA0201016016484FF080510160164883
:1001C0000068006880F3088861B662B670471EF068
:1001D000040F0CBFEFF30880EFF3098020E9F00F64
:1001E00040F804ED1EF0040F0CBF80F3088880F384
:1001F000098800B504F014FB5DF804EB4EF0040E22
:1002000070470000840000207C0000208000002057
:1002100004ED00E020ED00E008ED00E00649074AAB
:100220000868504343F239021044086040087047A0
:100230000149086070470000B40100206D4EC641BE
:1002400040EA01039B0703D009E008C9121F08C058
:10025000042AFAD203E011F8013B00F8013B521ED8
:10026000F9D27047421E12F8013F002BFBD111F862
:10027000013B02F8013B002BF9D1704730B5054630
:100280002A460B4612F8010B13F8014B08B1A042A5
:10029000F8D01CB1002802D06D1CF1E7284630BD13
:1002A00010B5044604E00B7800F8013B03B1491C8B
:1002B000521EF8D2204610BDCAB2401E10F8011FCF
:1002C0008A4202D00029F9D100207047421C10F860
:1002D000011B0029FBD1801A704710B5002200E0F5
:1002E000521C835C8C5CA34201D1002BF8D1D8B2A4
:1002F000E1B2401A10BD034611F8012B00F8012BA2
:10030000002AF9D11846704730B50546002003464B
:1003100000E05B1C934205D2EC5CC85C201A01D162
:10032000002CF6D130BD70B5064601F081FC0468A2
:1003300005460A220021304600F02AFB2C6070BDE1
:10034000F0B480EA0102D40F4200B2EB410F02D2B6
:100350000246084611464A0042D0C30DDDB2C1F341
:10036000C752AD1A202D35DAC1F3160141F400024F
:1003700004B15242C5F1200602FA06F12A411044A6
:10038000B3EBD05F23D0C4B1012DA0EBC35009DC87
:10039000F0BC4FF0004202EAC352DBB200F50000AD
:1003A00000F037BB400000F1807000EBC350A0F1BB
:1003B000807040EAD170490009E0490841EAC07103
:1003C000A0EBC35000F50000400800EBC350F0BCA8
:1003D00000F016BB6142012202EB4101001BF6E76F
:1003E000F0BC704781F00041AAE780F00040A7E729
:1003F00080EA010210B502F00043400022D04A001A
:100400001FD0010E01EB1261C0F35600C2F3560279
:1004100040F4000042F40002A0FB022000047F39F7
:10042000140400D0401C50EA124001D44000491E80
:10043000C2B20C0604EBD010401C4008802A02D047
:1004400003E0002010BD20F00100002900DA0020A8
:10045000184310BD30B480EA010202F0004530F0CC
:10046000004221F0004013D090B1C30DD40DC2F36F
:100470001601C0F31600E41A41F4000140F4000232
:100480007D34914201D3641C00E04900002C02DA63
:1004900030BC002070474FF400000023914201D38C
:1004A000891A034340084FEA4101F7D151B1914203
:1004B00002D14FF0004105E002D24FF0010101E00E
:1004C0006FF0010103EBC450284430BC00F098BA2F
:1004D0002DE9FE4F804681EA0300C00F0C460090D4
:1004E00021F0004123F00045B8EB0200A94105D2FC
:1004F0004046214690461C460B46024623F00040EB
:10050000104347D0270DC7F30A00C3F30A510290E6
:10051000401A019040286BDAC3F3130040F4801BAB
:100520000098924620B10023D2EB030A63EB0B0B39
:1005300001985946C0F14002504600F0F8F90646CD
:100540000D4650465946019A00F010FA10EB08008B
:100550006141002487EA115284EAE7731A4340D0CC
:10056000009A62B3019A012A4FEA075215DC001B78
:1005700061EB02014FF0004202EA0752CDE900426E
:10058000001C41F5801132462B4600F07FFA03B083
:10059000BDE8F08F40462146F9E7001B61EB020100
:1005A000001C41F5801300185B412018A2F50017CC
:1005B00047EB030140EAD570B6196D4111E06D08B3
:1005C0004FEA360645EAC0754FEA0752001B61EB59
:1005D0000201001C41F5801149084FEA3000001962
:1005E000514132462B4603B0BDE8F04F00F03FBA10
:1005F0000098012240000023D0EB020263EBE0737D
:10060000009821464FEAE074B8EB000061EB04016A
:10061000E9E783F000435BE781F0004158E72DE90B
:10062000FE4F81EA030404F0004421F000410094ED
:100630004FF0000B23F0004350EA01045ED052EA71
:1006400003045BD0C3F30A54C1F30A552C44A4F24B
:10065000F3340194A0FB0254C1F3130141F480115F
:10066000C3F3130343F4801301FB024400FB034E66
:10067000840A970A44EA815447EA8357A4FB07682F
:1006800002958D0A05FB07854FEA932C04FB0C5459
:100690002705029D4FEA065847EA1637B5EB0805CD
:1006A0006EEB070C870E920E47EA811742EA83121F
:1006B000A7FB0201B6EB0B0164EB00042B0D43EA30
:1006C0000C335E1844EB1C50DA465146E7FB02013E
:1006D000C5F313044FEA0B3343EA14534FEA0432D1
:1006E000019C43EA0603A4F10C040294009CCDE9AA
:1006F00000B400F0CBF903B0BDE8F08F0020014654
:10070000F9E72DE9F04D81EA030404F0004B21F0F4
:10071000004514464FF0000A23F0004150EA05025C
:1007200020D054EA01021DD0C5F30A570246C5F392
:100730001303C1F31300C1F30A5640F4801543F4C8
:100740008013A7EB0608101BD64608F2FD3873EBA2
:10075000050002D308F1010801E092185B41B8F1ED
:10076000000F03DA00200146BDE8F08D00204FF4B1
:100770008011064684460EE0171B73EB050705D370
:10078000121B63EB050306434CEA010C49084FEAD0
:10079000300092185B4150EA0107EDD152EA0300A4
:1007A00012D082EA040083EA0501084305D0101B39
:1007B000AB4106D20122002306E000224FF00043A5
:1007C00002E06FF0010253101AEB06004CEB0851E7
:1007D00010EB0A0041EB0B01BDE8F04D00F047B90A
:1007E000C10F80EAE0700844CA079623002100F098
:1007F00010B996230022114600F00BB9C1F30A523A
:1008000010B5C1F3130140F2FF3341F480119A4255
:1008100001DA002010BD40F233439A42A2F2334283
:1008200003DC524200F092F810BD904010BD00F081
:10083000004230F000400AD0C10D01F56071C0F3F4
:10084000160042EA0151C2084007114370470020D8
:100850000146704701F0004330B421F0004150EAF6
:10086000010206D00A0DA2F56072C1F31301002A3D
:1008700002DC30BC00207047440F44EAC104C100D0
:10088000E01830BC00EBC25000F0BAB8002801DB21
:10089000C0F10040002901DBC1F1004188427047EE
:1008A00030B50B46014600202022012409E021FA40
:1008B00002F59D4205D303FA02F5491B04FA02F53D
:1008C0002844151EA2F10102F1DC30BD2DE9F05FD4
:1008D0000546002092469B468846064681464024AF
:1008E0001BE0284641464746224600F02FF8534673
:1008F0005A46C01A914110D311461846224600F0BC
:1009000016F82D1A67EB01084F46224601200021F8
:1009100000F00DF817EB00094E41201EA4F1010470
:10092000DFDC484631462A464346BDE8F09F202A90
:1009300004DB203A00FA02F1002070479140C2F136
:10094000200320FA03F3194390407047202A04DB68
:10095000203A21FA02F00021704721FA02F3D04038
:10096000C2F120029140084319467047202A06DB55
:10097000CB17203A41FA02F043EAE07306E041FA6D
:1009800002F3D040C2F1200291400843194670475B
:100990002DE9F04791460F4680460446002614F89C
:1009A000015B2DB100F002F90068405DC007F6D18F
:1009B0002B2D02D02D2D18D0641E4A4639462046D4
:1009C00000F0F8F827B13968A14201D1C7F80080DA
:1009D00071054FF002040BD54042002803DD01F001
:1009E00027F90460A007BDE8F08746F48066E4E7D5
:1009F0000028F8DA01F01CF904606FF00040F2E71B
:100A00000029A8BF7047401C490008BF20F0010022
:100A1000704710B4B0FA80FC00FA0CF050EA010400
:100A200004BF10BC704749B1CCF1200421FA04F492
:100A300011FA0CF118BF012121430843A3EB0C016B
:100A4000CB1D4FEA00614FEA102042BF002010BCCE
:100A5000704700EBC35010440029A4BF10BC70477E
:100A6000401C490008BF20F0010010BC704710B5C1
:100A7000141E73F1000408DA401C41F100019218C1
:100A80005B411A4301D120F0010010BD2DE9F04D6A
:100A900092469B4611B1B1FA81F202E0B0FA80F2BF
:100AA00020329046FFF743FF04460F4640EA0A0013
:100AB00041EA0B0153465A46084313D0114653EA04
:100AC000010019D0C8F140025046FFF73FFF05462C
:100AD0000E46504659464246FFF729FF084305D0C7
:100AE000012004E020463946BDE8F08D0020054392
:100AF00046EAE0762C4337430A986305E40AA0EB04
:100B000008000022FD0A44EA47540A3002D50020BA
:100B10000146E9E7010510196941DDE908450019B9
:100B20006941BDE8F04DA2E7C1F30A52C1F31301D8
:100B300040F2FF3341F480119A4202DA002001466C
:100B4000704740F233439A42A2F2334202DC5242EF
:100B5000FFF7FCBEFFF7EBBE30B5041E71F10004D9
:100B600004DB4FF00044404264EB0101141E73F1BA
:100B7000000405DB1C464FF00043524263EB0403C4
:100B8000994208BF904230BD064C074D06E0E06830
:100B900040F0010394E8070098471034AC42F6D3C4
:100BA000FFF7A8FA0882000828820008004870476A
:100BB000947F00082DE9F05F8246007800271546F3
:100BC0008B460AF10104B946302801D09DB113E0EB
:100BD00014F8010B0127782803D0582801D045B11B
:100BE0000AE00DB1102D07D10027102514F8010BD4
:100BF00002E0082500E00A250026B0460EE005FBCD
:100C0000080005FB06F1012701EB10461FFA80F8EA
:100C1000B6F5803F00D3B94614F8010B294600F021
:100C200018F80028EBDABBF1000F05D00FB1641EF5
:100C300000E05446CBF80040B9F1000F06D000F0B8
:100C4000F7FF02210160C81EBDE8F09F48EA064098
:100C5000FAE73A2800D2303820F02002412A01D3A6
:100C6000A2F13700884201D34FF0FF30704770B5D2
:100C70008C1810F8015B15F0070301D110F8013B47
:100C80002A1106D110F8012B03E010F8016B01F8CE
:100C9000016B5B1EF9D12B0705D40023521E0DD426
:100CA00001F8013BFAE710F8013BCB1A921C03E074
:100CB00013F8015B01F8015B521EF9D5A142D8D3AC
:100CC000002070BD10B506F028F9002010BD00BF4F
:100CD000FEE721B1026842F00102026004E002680E
:100CE0004FF6FE731A4002607047000001684FF62D
:100CF000FE72114001600021016041608160C160AD
:100D00004B49884208D14A490839496841F00F01E6
:100D1000474A083A51608AE045491431884208D16F
:100D200043490839496841F0F001414A083A5160A5
:100D30007DE03F492831884208D13D49083949685A
:100D400041F470613A4A083A516070E038493C31E8
:100D5000884208D136490839496841F47041344A1B
:100D6000083A516063E032495031884208D1304935
:100D70000839496841F470212D4A083A516056E01B
:100D80002B496431884208D129490839496841F41E
:100D90007001274A083A516049E025497831884274
:100DA00008D123490839496841F07061204A083A5E
:100DB00051603CE01F49884206D1011F096841F09B
:100DC0000F01021F116032E01A491431884208D124
:100DD0001849091F096841F0F001164A121F1160F5
:100DE00025E014492831884208D11249091F0968B1
:100DF00041F470610F4A121F116018E00D493C3137
:100E0000884208D10B49091F096841F47041094A19
:100E1000121F11600BE007495031884207D1054984
:100E2000091F096841F47021024A121F11607047BE
:100E300008000240080402400146486880B270473A
:100E400010B50022026847F6F0739A430C6A8B686B
:100E500023430C6923434C6923438C692343CC69A6
:100E600023434C6A23438C6A23431A430260CB68B2
:100E700043600B6883604B68C36010BD704700001F
:100E80000149C860704700000020024030B50446A8
:100E900004254FF4302000F065F80546042D17D1E5
:100EA0000C48006940F002000A49086108464461A4
:100EB000006940F0400008614FF4302000F052F823
:100EC00005460448006941F6FD7108400149086182
:100ED000284630BD0020024004200B49C96801F0BB
:100EE000010109B101200EE00749C96801F00401C0
:100EF00009B1022007E00449C96801F0100109B1F5
:100F0000032000E0042070470020024070B5044632
:100F10000D460426F00200F025F80646042E11D1F5
:100F20000948006940F00100074908612580F00286
:100F300000F018F806460448006941F6FE710840C2
:100F400001490861304670BD002002400248034953
:100F5000486003484860704723016745002002400D
:100F6000AB89EFCD00B502460423FFF7B5FF03467A
:100F700003E0FFF7B1FF0346521E012B01D1002A07
:100F8000F7D102B90523184600BD000010B504468C
:100F9000012C0AD10B4A1189506800F0D1F8094A96
:100FA000918A106900F0CAF80AE04CB9054A118923
:100FB000506800F0C3F8034A918A106900F0BEF847
:100FC00010BD00001800002008B511490868012173
:100FD00000F02EF90E49C868012100F029F910200F
:100FE0008DF8030002208DF8020009480089ADF851
:100FF000000007494868694600F00CF80448808AF8
:10100000ADF8000002490869694600F003F808BD20
:10101000180000202DE9F04102460025002600209E
:1010200000230024002791F803C00CF00F0591F86D
:1010300003C00CF0100CBCF1000F03D091F802C0FB
:101040004CEA050591F800C0BCF1000F31D01468DE
:1010500000202BE04FF0010C0CFA00F3B1F800C0B7
:101060000CEA03069E4220D183004FF00F0C0CFACD
:1010700003F7BC4305FA03FC4CEA040491F803C0EF
:10108000BCF1280F06D14FF0010C0CFA00FCC2F89D
:1010900014C00AE091F803C0BCF1480F05D14FF02D
:1010A000010C0CFA00FCC2F810C0401C0828D1D377
:1010B0001460B1F800C0BCF1FF0F34DD54680020AB
:1010C0002EE000F1080C4FF0010808FA0CF3B1F81B
:1010D00000C00CEA03069E4221D183004FF00F0CA2
:1010E0000CFA03F7BC4305FA03FC4CEA040491F83C
:1010F00003C0BCF1280F05D100F1080C08FA0CF868
:10110000C2F8148091F803C0BCF1480F07D100F178
:10111000080C4FF0010808FA0CF8C2F81080401CC7
:101120000828CED35460BDE8F081024600209368C1
:101130000B400BB1012000E0002070474161704777
:101140000161704700BFFEE77047000070B50021E5
:1011500000230F22C47804B3154C246804F4E0641F
:10116000C4F5E064210AC1F10403CA40447804FADA
:1011700003F184781440214309010E4C0678A155EF
:10118000047804F01F050124AC4005786D11AD0012
:1011900005F1E025C5F8004109E0047804F01F05D9
:1011A0000124AC40044D0678761145F8264070BD08
:1011B0000CED00E000E400E080E100E002490143C2
:1011C000024A1160704700000000FA050CED00E0D3
:1011D00029B1064A52690243044B5A6104E0034AAA
:1011E00052698243014B5A6170470000001002406F
:1011F00029B1064AD2690243044BDA6104E0034A8A
:10120000D2698243014BDA6170470000001002404E
:1012100029B1064A12690243044B1A6104E0034AE9
:1012200012698243014B1A617047000000100240AE
:1012300029B1064A92690243044B9A6104E0034AC9
:1012400092698243014B9A6170470000001002408E
:1012500029B1064AD2680243044BDA6004E0034A2B
:10126000D2688243014BDA607047000000100240F0
:1012700030B500210022002400232D4D6D6805F0BB
:101280000C0121B1042905D0082923D105E0294DFD
:10129000056022E0274D05601FE0254D6D6805F4CF
:1012A0007012234D6D6805F48034022505EB9242DF
:1012B0001CB9214D554305600BE01D4D6D6805F4CB
:1012C00000351DB11C4D5543056002E0194D5543D5
:1012D000056002E0174D056000BF00BF144D6D684A
:1012E00005F0F0010909154D6B5C0568DD404560AE
:1012F0000F4D6D6805F4E061090A104D6B5C45689F
:10130000DD4085600A4D6D6805F46051C90A0B4DDA
:101310006B5C4568DD40C560054D6D6805F4404176
:10132000890B074D6B5CC568B5FBF3F5056130BDF6
:101330000010024000127A0000093D006800002001
:10134000780000207047000010B5A4B080221D492D
:1013500004A8FEF775FF00F021FC00F02DFC1A48F0
:10136000007B002809DD1848027B18A1684600F0C0
:101370004BFC694604A8FEF775FF1348407B002824
:1013800009DD1148427B13A1684600F03DFC694627
:1013900004A8FEF767FF04A8FEF798FF02280FD9FC
:1013A00004A8FEF793FF401E04A97D220A5404A856
:1013B000FEF78CFF84B2C822214604A803F004F88B
:1013C00024B010BDEC7800080000002041363D2517
:1013D000642C000041373D25642C000010B5044604
:1013E00004F0010018B10120FFF7D0FD02E0002059
:1013F000FFF7CCFD10BD00001CB502210F48007C9A
:101400004FF47A72504300230D4ACDE900010DA13B
:10141000104805F06DFA00231A460FA1124804F097
:1014200025FB0C4805F08EFA104804F0B5FF02F0D9
:10143000C1F8FFF7C9FD01F0BFFF1CBD000000208F
:101440009D6F000873656E736F7220706F6C6C20F7
:1014500074696D00E401002073656E736F72207013
:101460006F6C6C2073656D00BC010020A806002025
:1014700010B5024804F030FB10BD0000BC01002094
:1014800070B5A4B08022634904A8FEF7D9FE4FF4DA
:101490007A71614804F068FB04460CB124B070BD59
:1014A0005E48807B00F0010080B100F02BFB5B49BF
:1014B0000868FFF7BCF905462A460B4658A168465E
:1014C00000F0A2FB694604A8FEF7CCFE5348807BDF
:1014D00000F00200022810D100F01EFB4F494868BE
:1014E000FFF7A5F905462A460B4650A1684600F0CD
:1014F0008BFB694604A8FEF7B5FE4848807B00F0E8
:10150000040004280BD100F011FB4448027A4AA1E0
:10151000684600F079FB694604A8FEF7A3FE3F4841
:10152000807B00F0080008280BD100F00DFB3B4841
:10153000427A43A1684600F067FB694604A8FEF7BB
:1015400091FE3648807B00F0100010280BD100F08F
:1015500009FB3248827A3CA1684600F055FB694697
:1015600004A8FEF77FFE2D48807B00F02000202895
:101570000BD100F005FB2948C27A35A1684600F07E
:1015800043FB694604A8FEF76DFE2448807B00F00B
:10159000400040280BD100F001FB2048027B2EA127
:1015A000684600F031FB694604A8FEF75BFE1B4865
:1015B000807B00F0800080280BD100F0FDFA1748F6
:1015C000427B27A1684600F01FFB694604A8FEF78E
:1015D00049FE1248C27B24A1684600F015FB69460B
:1015E00004A8FEF73FFE04A8FEF770FE02280FD9FC
:1015F00004A8FEF76BFE401E04A97D220A5404A82D
:10160000FEF764FE85B2C822294604A802F0DCFE7B
:1016100000BF43E76C780008BC01002000000020F8
:1016200041303D252E32662C0000000041313D2521
:101630002E32662C0000000041323D25642C000053
:1016400041333D25642C000041343D25642C0000CD
:1016500041353D25642C000041363D25642C0000B9
:1016600041373D25642C000044313D25642C0000A9
:1016700010B500F001F810BD0CB5002001900090ED
:101680003348006840F480303149086000BF30487A
:10169000006800F4003000900198401C0190009810
:1016A00018B90198B0F5A06FF1D12948006800F48D
:1016B000003010B10120009001E00020009000985F
:1016C000012843D12348006840F0100021490860F8
:1016D0000846006820F0070008600846006840F0EF
:1016E000020008601A484068194948600846406886
:1016F00048600846406840F480604860084640689A
:1017000020F47C1048600846406840F4E8104860C7
:101710000846006840F08070086000BF0C48006810
:1017200000F000700028F9D00948406820F003005C
:10173000074948600846406840F00200486000BF22
:101740000348406800F00C000828F9D10CBD0000E7
:10175000001002400020024010B503F0B9F804F078
:101760006DFF03F0DFF810BD10B51348006840F0BE
:1017700001001149086008464068104908400E49B8
:101780004860084600680E4908400B490860084652
:10179000006820F4802008600846406820F4FE00BD
:1017A00048604FF41F008860FFF762FF4FF0006051
:1017B0000449086010BD0000001002400000FFF85E
:1017C000FFFFF6FE08ED00E010B540F224410C48A2
:1017D00000F0D3F898B10A4800F08AF90948FFF7F9
:1017E0002BFBC0F58064E01704EB90508012A4EB53
:1017F0008020054908800121044803F0EDFB10BD5D
:101800000038014058000240400000209421002090
:1018100010B540F22551084800F0AFF858B106481D
:1018200000F066F9C4B20548006818B120460349C3
:101830000968884700BF10BD0044004050000020E8
:1018400010B540F224410C4800F097F898B10A48CE
:1018500000F04EF90948FFF7EFFAC0F50074E01701
:1018600004EBD0504012A4EB402005490880012130
:10187000044803F0B1FB10BD0048004030000240B6
:1018800036000020F410002001F40072B2F5007F51
:1018900000D100BFCA430280704721B1828942F45F
:1018A0000052828104E082894DF6FF731A408281E2
:1018B00070471AB1838A0B43838202E0838A8B4389
:1018C0008382704710B504462048844209D1012123
:1018D0008803FFF7BDFC00214FF48040FFF7B8FC00
:1018E00032E01B48844209D101214804FFF790FCF3
:1018F00000214FF40030FFF78BFC25E015488442AF
:1019000009D101218804FFF783FC00214FF48020D6
:10191000FFF77EFC18E01048844209D10121C80479
:10192000FFF776FC00214FF40020FFF771FC0BE07D
:101930000A48844208D101210805FFF769FC00210B
:101940004FF48010FFF764FC10BD00000038014028
:101950000044004000480040004C0040005000405F
:1019600002460020B1F5007F00D100BF13880B4074
:101970000BB1012000E00020704770B50246002442
:1019800000230025002040F66A16B14200D100BFB6
:10199000C1F3421501F01F03012606FA03F3012DDE
:1019A00002D19689334006E0022D02D1168A3340D7
:1019B00001E0968A33400C12012606FA04F41688D8
:1019C000344013B10CB1012000E0002070BDF0B52F
:1019D0000346002400260025002040F66A17B9427D
:1019E00000D100BF1846C1F3421401F01F060127C1
:1019F00007FA06F5012C01D10C3004E0022C01D1CC
:101A0000103000E014301AB107682F43076002E07D
:101A10000768AF430760F0BD2DE9F04786B0054683
:101A20000E460024A24600BFA1460027B08900B19F
:101A300000BF2F462C8A4CF6FF700440F088044308
:101A40002C82AC894EF6F3100440B08831890843EB
:101A5000718908430443AC81AC8A4FF6FF400440CF
:101A6000B0890443AC8201A8FFF702FC1F488742FB
:101A700002D1DDF810A001E0DDF80CA0A88900F487
:101A8000004040B10AEBCA0000EB0A10316849007F
:101A9000B0FBF1F807E00AEBCA0000EB0A1031686E
:101AA0008900B0FBF1F86420B8FBF0F004012009D4
:101AB000642101FB1089A88900F4004040B1322064
:101AC00000EBC900B0FBF1F000F00700044308E0B0
:101AD000322000EB09106421B0FBF1F000F00F00A0
:101AE00004432C8106B0BDE8F087000000380140B7
:101AF00001468888C0F308007047C1F3080282805D
:101B00007047000010B5F32001F0A2FB0149086006
:101B100010BD00000000002010B5F52001F098FB7A
:101B20000149486010BD00000000002010B5FEF71C
:101B300075FB642190FBF1F201FB12000149087270
:101B400010BD00000000002010B5FEF767FB642107
:101B500090FBF1F201FB12000149487210BD000038
:101B60000000002010B5FEF759FB642190FBF1F254
:101B700001FB12000149887210BD00000000002026
:101B800010B5FEF74BFB642190FBF1F201FB120054
:101B90000149C87210BD00000000002010B501F01E
:101BA0003BFB012802D10349087302E000200149F0
:101BB000087310BD0000002010B501F02DFB0228B5
:101BC00003D101200349487302E000200149487312
:101BD00010BD00000000002038B50446074804741A
:101BE000007C4FF47A71484300906A460021044813
:101BF00004F09CFD024804F0A5FE38BD0000002062
:101C0000E401002000BFFEE70FB4084B10B504A9A3
:101C100002AA039800F05EF9044602A9002000F031
:101C2000A9FD204610BC5DF814FB000075270008D4
:101C300000487047B8010020014609B900207047EC
:101C4000C8B220B1C8B20E4A105C401CF7E701F4DC
:101C50007F4028B10A48C1F30722805C0930EEE7D3
:101C600001F47F0028B10648C1F30742805C1130BF
:101C7000E5E7034800EB116000781930DFE700006A
:101C8000BA7B000802E008C8121F08C1002AFAD176
:101C900070477047002001E001C1121F002AFBD1EC
:101CA0007047000070B504460D46002609E0218803
:101CB0002846FFF72BF907490870AD1CA41C701CBF
:101CC00086B2B6F5007F03DA024800780428EED029
:101CD00070BD00004C0000202DE9FF5F82B00021A4
:101CE000DDE90430020DDDF840B0034318D044F6BE
:101CF0001050A2F2FF3242431514119801281FD050
:101D0000A5EB0B00401C5FEA000A4FF000064E4FA7
:101D1000DFF83891B046504615D5CAF1000413E0FB
:101D2000119801244AA3012801D16FEA0B010298FE
:101D3000119AC0E90031C0E9024206B0BDE8F09F47
:101D4000CBF10000DFE704460021404A491842EB8E
:101D50000450CDE9001012E0E00707D032463B46C0
:101D600040464946FEF75BFC8046894632463B4684
:101D700010461946FEF753FC06460F466410002C29
:101D8000EAD1DDE90401DDE90023BAF1000F06DA4A
:101D9000FEF745FC42464B46FEF741FC05E0FEF7E8
:101DA000B0FC42464B46FEF7ACFC04460E46002211
:101DB000284BFEF7D1FE03D84FF0FF30014607E075
:101DC0000022254B20463146FEF782FBFEF7ACFE93
:101DD000102409E0002C0ADB0A220023FEF776FD1E
:101DE000039B30321A55641E50EA0102F2D1641C82
:101DF000039AC4F111031444119A012A03D0012259
:101E000008430DD10AE0084304D000204FF0110B25
:101E1000119072E7A3EB0B056D1E0DE05B4504DD31
:101E20004FF0000205F1010504E003DA4FF0000273
:101E3000A5F10105002AECD002981199C0E9023100
:101E4000C0E9004579E70000000014400000F03FC1
:101E5000300000000000F0430000E03F70B5044691
:101E600006480068FFF7E8FE451E054850F83500B3
:101E7000A0F11C062560304670BD000078010020EE
:101E8000842C002003490868884201D00120704753
:101E90000020FCE788010020F8B506460A480078D3
:101EA000022802D10324022502E04FF0FF30F8BDE2
:101EB00000BF4FF4FA702B46224604A10090304632
:101EC000FFF7A2FE0020F2E73C00002025752575F3
:101ED000257500002DE9FF4F95B09A4688460646C5
:101EE0000025EEE1252877D100242746F94A012173
:101EF000039400E0044316F8013F203B01FA03F08D
:101F00001042F7D130782A2811D06FF02F033078A3
:101F1000A0F13002092A16D8039A44F0020402EB19
:101F2000820203EB42021044761C0390EFE758F85C
:101F3000042B0392002A03DA504244F40054039025
:101F400044F00204761C30782E2816D116F8010FC2
:101F500044F004042A280DD06FF02F023078A0F14D
:101F60003003092B09D807EB870302EB4303C7189B
:101F7000761CF3E758F8047B761C30786C280FD079
:101F800006DC4C2817D068280DD06A2814D104E04C
:101F9000742810D07A280FD10DE044F400140AE020
:101FA00044F4801401E044F440147278824202D177
:101FB00004F58014761C761C307866280BD013DC70
:101FC000582877D009DC002875D04528F6D0462857
:101FD000F4D047281AD193E118E0632835D064285B
:101FE00079D0652812D18BE1702873D008DC67287E
:101FF000F1D069286FD06E280DD06F2806D1ACE0E3
:1020000073282CD0752874D0782853D0524617994D
:1020100090476D1C54E1C4F30250022809D00328F4
:102020000DD0D8F8001004280DD00D6008F1040878
:1020300046E1D8F80010EA17C1E90052F6E7D8F8EF
:1020400000100D80F2E70D70F0E718F8041B8DF812
:10205000001000208DF80100EB46012003E058F845
:1020600004BB4FF0FF3061074FF0000102D40DE0D8
:1020700009F101018946B9420FDA8145F8DB1BF805
:1020800009100029F4D108E009F1010189468142D3
:10209000FADB1BF809100029F6D103985346A0EB90
:1020A000090721463846179A00F080FA284400EBC9
:1020B000090507E044E008E10DE01BF8010B52467A
:1020C00017999047B9F10109F7D25346214638468E
:1020D000179AF2E039E00A21C4F302524FF0000BE4
:1020E0000091022A06D058F8040BC117032A09D020
:1020F0000AE023E008F1070020F00702F2E80201FD
:10210000904605E000B2C117042A01D140B2C117C0
:10211000002906DA0A460021404261EB02012D2225
:1021200002E0220504D52B228DF80420012203E0D1
:10213000E20701D02022F7E7914657E00A2100E0AC
:1021400010214FF0000B00910BE010214FF0000B1D
:1021500044F004040827009103E008204FF0000B2E
:102160000090C4F30252022A05D058F8040B002153
:10217000032A08D008E008F1070020F00702F2E87F
:102180000201904603E080B2042A00D1C0B24FF0B1
:10219000000922072AD53278702A07D0DDF800C05E
:1021A0008CF0100C5CEA0B0C05D00EE040228DF890
:1021B0000420012208E050EA010306D030238DF804
:1021C00004308DF8052002229146009B83F008031D
:1021D00053EA0B030AD150EA010201D1620705D587
:1021E00030228DF804204FF001097F1E3278582AE2
:1021F00004D039A20C920CAA02920BE03BA2F9E7A0
:102200005B46009AFEF762FB0C9B9B5C029A521E97
:102210000292137050EA0102F2D1029804A9081A3E
:1022200000F1200B600702D524F4803400E0012780
:102230005F4502DDA7EB0B0000E0002000EB0B0187
:10224000009003984944401A0390E00306D4534693
:102250002146179A039800F0A9F90544002706E0E3
:1022600001A85246C05D179990476D1C7F1C4F45D1
:10227000F6DBE0030CD553462146179A039800F08D
:1022800095F9054404E030205246179990476D1C9B
:102290000099481E00900029F5DC08E00298029998
:1022A00052460078491C0291179990476D1CBBF16A
:1022B0000001ABF1010BF1DC5BE100F065F90544D5
:1022C000761C307800287FF40DAE19B02846BDE8A2
:1022D000F08F0000092801003031323334353637B1
:1022E0003839616263646566000000003031323362
:1022F0003435363738394142434445460000000002
:10230000600700D4062708F1070020F00700F0E876
:102310000223804603F0004C5FEA0C0001D097A036
:1023200009E0200501D596A005E0E00701D095A0C1
:1023300001E0AFF24C001390307823F000436528A1
:102340000CD006DC452809D046281DD047287FD16F
:102350003BE0662818D067287AD136E00021112F9B
:1023600001DB112000E0781CCDE9000104A90CA8D4
:10237000FFF7B2FCDDE90D010C9A4FF0000B07F1FD
:102380000109109200914EE04FF000400097CDE916
:10239000011004A90CA8FFF79FFCDDE90D020C9BBE
:1023A0000F994FF0000B91461093009211B9791CD0
:1023B00000EB0109B7EB090003D4C0F1FF3B07F1C3
:1023C0000109A9EB0700019042E0012F00DA012783
:1023D0000021112F01DD112000E03846CDE9000178
:1023E00004A90CA8FFF778FCDDE90D010C9A009117
:1023F0004FF0000BB946109221070FD4009A4A45BE
:1024000003DA914601E0A9F10109B9F1010F05DDF7
:10241000109AA9F10101515C3029F4D0B84202DAD6
:1024200010F1040F03DA0121CDE9011010E00028BA
:1024300003DC8344A9EB000102E0411C494500DDB7
:102440008946A0EB0B00401C01904FF00040029029
:10245000200705D40198484502DB4FF0FF3001907A
:1024600000208DF84B0002980DF14B07B0F1004FA2
:1024700025D002200C902B200D90029800280CDA19
:10248000404202902D200D9007E00A210298FEF7AD
:1024900007FA3031029007F8011D0C99481E0C9084
:1024A0000029F2DC02980028EFD1791E0D980870FF
:1024B000307800F0200040F0450007F8020D11A828
:1024C000C01BC01D02901398007800B1012000EBE2
:1024D0000901019801EBE071029801440398401A48
:1024E000401E0390E00306D453462146179A0398F2
:1024F00000F05CF805441398007818B1524617991B
:1025000090476D1CE00323D553462146179A039844
:1025100000F04CF805441BE0BBF1000F07DB00980E
:10252000584504DD1098179910F80B0001E0179931
:1025300030205246904701980BF1010B401E05F1E7
:102540000105019004D12E205246179990476D1C29
:10255000B9F10001A9F10109DEDC05E017F8010B72
:102560005246179990476D1C0299481E0290002907
:10257000F4DC53462146179A03989EE62D0000008E
:102580002B000000200000002DE9F041044600254A
:102590001E461746880404D405E039462020B0477B
:1025A0006D1C641EF9D52846BDE8F0812DE9F04187
:1025B000044600251E469046C80301D5302700E09A
:1025C0002027880404D505E041463846B0476D1CF5
:1025D000641EF9D52846BDE8F081000070B50446B8
:1025E00024B953220D490EA001F0C0FF206B0078E2
:1025F000232809D1216B606A884205D9D4E90C01EE
:102600000844616A884206D2FDF78EFD054600BF88
:10261000002DFDD100E000BF70BD0000987D0008D6
:1026200074687265616420213D2052545F4E554CA0
:102630004C0000002DE9FC5F04468B4616461F4601
:10264000DDE90C9ADDE90E5804F11C0040600060E1
:1026500000BFA662E762C4F83090C4F834A023211A
:10266000D4E90C0202F08EFDD4E90C3C63441A1F3D
:10267000174BD4E90A0102F0E5F86062202D04DB73
:102680009522144914A001F071FF3834A5716571C9
:102690000020A060C4F81480C4F818802060207165
:1026A00020656065383C00902346144A214601901D
:1026B00004F1540004F01CF900BF1148006818B17F
:1026C00020460F490968884700BF0020BDE8FC9FED
:1026D00045600008E67D00087072696F7269747960
:1026E000203C2052545F5448524541445F50524967
:1026F0004F524954595F4D41580000003965000858
:102700009C0100202DE9F04704460E4617469846E6
:10271000DDF8209084F81190607C20F00100607456
:102720006662A76200202063C4F82C80002506E0C2
:1027300004F11C0101EBC50002F079F96D1C012DBB
:10274000F6DBBDE8F08710B50246002001460EE03A
:1027500002F11C0303EBC100D0E900436360D0E940
:10276000003423604060006000BF481C014601291E
:10277000EEDB10BD0A68531C0B6010707047000040
:1027800000B58BB001210846FEF722FD1148FEF787
:10279000ADFA1148019011480090002002904FF4CA
:1027A0000070039000200490802005900020069087
:1027B0000790202008900002099000200A906946A6
:1027C0000448FEF73DFB01210248FEF782FA0BB0F8
:1027D00000BD0000300002405411002004480040B9
:1027E00008B501210820FEF723FD4FF40060ADF885
:1027F000000003208DF8020004208DF803006946D4
:102800000848FEF707FC4FF48060ADF80000032095
:102810008DF8020018208DF8030069460148FEF784
:10282000F9FB08BD000C014008B5002209A10E48C3
:1028300002F0CCFC01200A230C4A0DA100901048A4
:1028400002F0BCFAFFF7CCFFFFF79AFF00F01AF88E
:1028500008BD000061742069662075617274206D86
:102860007574657800000000C81000202C1100204D
:1028700061742069662064617461206D62000000EB
:10288000F410002000B585B001218804FEF7B0FCEB
:102890001C48FFF717F84FF4164001900020ADF8E0
:1028A0000800ADF80A00ADF80C00ADF810000C20DF
:1028B000ADF80E0001A91348FFF7AEF827208DF8F8
:1028C000000001208DF8010000208DF80200012099
:1028D0008DF803006846FEF739FC30210948FEF701
:1028E000D3FF012240F224410648FFF770F801228D
:1028F00040210448FEF7DDFF01210248FEF7CDFF2D
:1029000005B000BD0048004070B59AB004460025EF
:10291000C8A12046FDF7E1FC18B9C7A000F054FBA0
:1029200084E1C7A12046FDF7D8FC48B90020C6497C
:102930000870C6A000F048FBBFA000F045FB75E1A1
:10294000C4A12046FDF7C9FC30B90120BE4908707A
:10295000B9A000F039FB69E1C0A12046FDF7BDFC3C
:1029600030B9C0A000F030FBB3A000F02DFB5DE15A
:10297000C0A12046FDF7B1FC60B9C1480278C1A1F1
:1029800001A8FFF741F901A800F01EFBAAA000F082
:102990001BFB4BE1BEA12046FDF79FFC58B9BE4A88
:1029A000BEA101A8FFF730F901A800F00DFBA2A01D
:1029B00000F00AFB3AE10722BBA12046FDF7A4FC88
:1029C00030BBE0793F2809D1B34A2832B8A101A829
:1029D000FFF71AF901A800F0F7FA15E0E0793D28B1
:1029E00012D1282204F10901AB482830FDF758FC28
:1029F000A9482830FDF76AFC401EA749283100226B
:102A00000A540020AE4908708BA000F0DDFA0DE1F9
:102A10000622ACA12046FDF777FC30BBA0793F2809
:102A200009D19D4A5032A9A101A8FFF7EDF801A8EC
:102A300000F0CAFA15E0A0793D2812D1142204F161
:102A4000080195485030FDF72BFC93485030FDF7B6
:102A50003DFC401E9049503100220A540020984904
:102A6000087075A000F0B0FAE0E006229AA12046B6
:102A7000FDF74AFCE0B9A0793F2809D1864A6432C3
:102A800097A101A8FFF7C0F801A800F09DFA0BE09C
:102A9000A0793D2808D12822E11D7F486430FDF748
:102AA000FFFB00208649087063A000F08DFABDE0AE
:102AB00007228EA12046FDF727FC68BBE0793F285E
:102AC00009D1754A8C328BA101A8FFF79DF801A8A6
:102AD00000F07AFA1CE0E0793D2819D1207A22280A
:102AE00016D12046FDF7F2FB401E205C22280FD1B4
:102AF0002046FDF7EBFB401E00212154782204F113
:102B0000090165488C30FDF7CBFB00206C4908704B
:102B100049A000F059FA89E006227AA12046FDF783
:102B2000F3FB88BBA0793F281BD15B480838B0F87D
:102B3000320146F6B25188420AD057480838B0F8F8
:102B4000323100F5867271A101A8FFF75DF804E04B
:102B5000724A73A101A8FFF757F801A800F034FAF0
:102B600022E0A0793D281FD12C212046FDF7A4FBAF
:102B7000064656B100203070701CFDF7D4FB464964
:102B80000839A1F8320106E012E046F6B250424997
:102B90000839A1F832012622E11D6048FDF780FBCB
:102BA00000204749087000BF23A000F00DFA3DE067
:102BB0005EA12046FDF791FB48B99C2236490839B1
:102BC0005D4800F05DFA1CA000F0FEF92EE05BA16C
:102BD0002046FDF782FB98B917A000F0F5F904F044
:102BE000D1FC00BF5848006800F4E0605749084332
:102BF000001D55490860BFF34F8F00BF00BFFEE7BF
:102C0000082253A12046FDF77FFB60B904F10800BC
:102C1000FDF789FB85B20DB1FF2D07DD00254FA023
:102C200000F0D2F902E04DA000F0CEF928461AB02B
:102C300070BD0000415400004F4B0D0A0000000021
:102C4000415445300000000032000020415445301E
:102C50000D0A0000415445310000000041542B484A
:102C6000573F00002B48573A455350383236360DFF
:102C70000A00000041542B4C494E4B3F000000001D
:102C80003A0000202B4C494E4B3A25750D0A0000A6
:102C900041542B4D41433F00382000202B4D4143F0
:102CA0003A25730D0A00000041542B535349440048
:102CB0002B535349443A222573220D0A0000000089
:102CC0004400002041542B4B455900002B4B4559E3
:102CD0003A222573220D0A0041542B414944000039
:102CE0002B4149443A25730D0A00000041542B4101
:102CF0004B4559002B414B45593A222573220D0A69
:102D00000000000041542B53495000002B53495000
:102D10003A25732C25750D0A000000003C21002087
:102D20002B5349503A25730D0A00000041542B459E
:102D30004E5653415645000000FC010841542B52A9
:102D400045534554000000000CED00E00000FA057A
:102D500041542B53454E443D000000004552523A29
:102D60002042616420636F6D6D616E640D0A000026
:102D700010B5FFF759FD10BD30B58BB004462046A5
:102D8000FDF7A4FA054607482A4607A1036801A8EB
:102D9000FEF73AFF01A800F017F9204600F014F9F9
:102DA0000BB030BD480000202B524543563A2575E4
:102DB0002C25640D0A00000030B5B5B00024621E59
:102DC00001A9354802F02AF80546002D62D1019884
:102DD00001285FD10022C82102A800F0B9F80446FA
:102DE000002002A908552D48007848BB022C07DDB9
:102DF000A01E085C0D2803D1601E085C0A2801D0C3
:102E000035B030BD26480078012802D102A800F074
:102E1000DBF80021A01E02AA115402A8FFF774FDDE
:102E20002049088008460088002833DD00201E491C
:102E300008700120194908701CA000F0C5F829E0AD
:102E400016480078012825D102A91748FDF70AFA8B
:102E50001548FDF73BFA1349098888421AD3002226
:102E600010480188104801F0AFFA044610A000F0A5
:102E7000ABF8002C03DA10A000F0A6F807E0224619
:102E800012A10948FEF7C0FE074800F09DF8002097
:102E90000249087000BFB3E7F4100020330000209F
:102EA0003200002034000020C80F00203E00000047
:102EB0004F4B0D0A000000002B4441544153454E36
:102EC000443A4572726F72210D0A00002B4441543E
:102ED0004153454E443A25640D0A000001E0FFF7D6
:102EE0006BFFFCE71FB5FFF743FF142003214FF4EE
:102EF0008062094BCDE90032CDE902100023074A78
:102F000007A1094803F06CF9044624B9064803F008
:102F100043FA044600BF1FBDC80B0020DD2E000889
:102F2000617420636F6D6D00380B0020064B1988AB
:102F3000064B1A888A4202DB531A98B203E0C1F5A5
:102F40000073134498B27047380000203600002008
:102F50002DE9F04105460C461646FFF7E7FF074608
:102F6000BC420ADD002E05DD304603F077F9FFF79D
:102F7000DDFF0746BC4200DD3C4600200DE0104A64
:102F800012881118CA1701EBD2525212A1EB422239
:102F90000C4B9A5C2A54411C88B2A042EFDB0849D2
:102FA00009880819C11700EBD1514912A0EB412142
:102FB000034A11800020285520B2BDE8F0810000AE
:102FC000380000205411002070B505464FF47A7186
:102FD0000E4802F0CFF900B170BD00240CE000BF34
:102FE00080210B48FEF7BCFC0028F9D0295D084879
:102FF000FEF783FD601C84B22846FDF767F9A04206
:10300000EDD8024802F00EF900BFE5E7C810002035
:1030100000480040014605E0002001E0421CD0B21B
:10302000C828FBDB0A1EA1F10101F5D1704710B5DC
:103030000446204601F02CFC10BD000010B50346EC
:10304000B3F1006F0BD30D48834208D29818B0F14A
:10305000006F04D39818094CA04200D209B900208F
:1030600010BD002005E033F8104021F8024B441C4D
:10307000A0B29042F7DB0120F2E70000FFFF0F084B
:103080002DE9F74F86B0884691464FF0000A069822
:10309000C0F34807C7F5007005900698C0F3090112
:1030A000A0EB010B07EB0900C0F3080030B90020CA
:1030B000019007EB09004FEA502A06E00120019039
:1030C00007EB0900012101EB502AFDF73FFF3420F7
:1030D000FDF7D6FE4FF400724D495846FFF7AEFF9C
:1030E0005846FDF7D3FE4B490870BAF1010F12D1D3
:1030F0004646BDB206E03088454921F81500B61CA9
:10310000681C85B207EB0900A842F4D8594640482C
:10311000FEF7C8FD78E04646BDB206E030883C497F
:1031200021F81500B61C681C85B2B5F5007FF5DBEB
:1031300059463748FEF7B6FD0198D8B9012412E088
:103140000BEB842003900398FDF7A0FE3149087033
:10315000059908EB4102611E02EB81200399FEF7FD
:10316000A1FD601C84B254454ED22A480078042840
:10317000E6D049E0012412E00BEB84200390039891
:10318000FDF784FE23490870059908EB4102611E92
:1031900002EB81200399FEF785FD601C84B2AAF141
:1031A0000100A04203D91B4800780428E4D0AAF10A
:1031B00001000BEB802004904FF400721449049836
:1031C000FFF73CFF0498FDF761FE1249087005986F
:1031D00008EB4001AAF1020001EB80260598A9EB5B
:1031E0000000C0F308000290002506E0308808497E
:1031F00021F81500B61C681C85B202988542F5D3EB
:1032000003480499FEF74EFD012009B0BDE8F08F98
:10321000BC2600204C00002010B500244FF40071A3
:103220000A48FDF782FF10B944F0010401E024F0E0
:1032300001044FF480710548FDF777FF10B944F0A1
:10324000020401E024F00204204610BD000C0140FD
:103250002DE9F04F87B005464FF0000B0020069097
:1032600000F024F9802000F055F900287ED128468E
:1032700000F050F90028F9D100BF1E20FFF7CAFE68
:1032800000F014F9812000F045F90128F5D0002064
:1032900000F0BAF804461E20FFF7BCFE002000F044
:1032A000B3F80646012000F0AFF800F01BF906F075
:1032B000FC0606EB0420FDF793FA8346F32D3DD17F
:1032C0005846FDF7B4FA0746314A324BFDF7A7F9E5
:1032D0000022314BCDE90001FDF713FA2F4A304BA4
:1032E000CDE90201FDF795F9CDE90401FDF7B2FA48
:1032F00006900698FDF79BFA21F000410746002250
:10330000284BFDF78CF9CDE90401FDF777FA8246E9
:1033100000210698FDF7BAFA03D800202249087068
:1033200002E00120204908705046FDF762FA074686
:103330001E49FDF78FF807B0BDE8F08F1C495846CD
:10334000FDF756F880464FF08F41FDF783F80746AA
:103350001849FDF747F806900698FDF768FA21F03E
:10336000004100220F4BCDE9040100E00DE0FDF724
:1033700056F90746FDF742FA81464846FDF739FA05
:1033800007460A49FDF766F8D5E70020D3E70000B5
:10339000D7A3703D0AF765400000F040CDCCCCCCFF
:1033A000CC6C474000005940300000200000C8426B
:1033B0000000FA420000C04010B500F00FF800F025
:1033C00075F8802000F0A6F8FE2000F0A3F800F0C9
:1033D00089F84FF41670FFF71DFE10BD08B50121E6
:1033E0000820FDF725FF0320ADF8000010208DF820
:1033F000030002208DF8020069460248FDF70AFE2C
:1034000008BD0000000C014070B50546002403F023
:1034100099FD02212448FDF791FE01212248FDF784
:103420008FFE00261EE002211F48FDF789FE1E20A8
:10343000FFF7FDFD6006040E01211B48FDF775FE38
:1034400010B144F0010401E004F0FE040A20FFF78B
:10345000EEFD02211448FDF771FE1420FFF7E7FD91
:10346000701CC6B2082EDEDB03F07EFD25B1012103
:103470000D48FDF765FE03E001210B48FDF75EFEF8
:103480000A20FFF7D4FD02210748FDF759FE32203C
:10349000FFF7CDFD02210448FDF750FE3220FFF773
:1034A000C6FD204670BD0000000C014010B503F0C1
:1034B0005BFD01210A48FDF743FE02210848FDF7A4
:1034C0003FFE0220FFF7B3FD01210548FDF736FE60
:1034D0000220FFF7ACFD02210148FDF72FFE10BDD1
:1034E000000C014010B503F03FFD01210848FDF735
:1034F00025FE02210648FDF723FE0220FFF797FD77
:1035000001210348FDF71CFE0220FFF790FD10BDCE
:10351000000C014070B5044603F026FD022124484A
:10352000FDF70CFE002520E004F0800020B1012111
:103530001F48FDF705FE03E001211D48FDF7FEFDD4
:103540000220FFF774FD02211948FDF7F9FD022062
:10355000FFF76DFD02211648FDF7F0FD0220FFF791
:1035600066FD6006040E681CC5B2082DDCDB022077
:10357000FFF75DFD03F0E6FC01210D48FDF7E0FDDE
:1035800002210B48FDF7DCFD0220FFF750FD012171
:103590000748FDF7CAFD08B1012070BD02210448AB
:1035A000FDF7CCFD0220FFF742FD0020F5E700000B
:1035B000000C014008B501210820FDF739FE4FF449
:1035C0004070ADF8000048208DF8030002208DF80F
:1035D000020069460148FDF71DFD08BD000C0140D1
:1035E00008B501210820FDF723FE10208DF8030007
:1035F00002208DF802000003ADF80000694609487A
:10360000FDF708FD4FF48040ADF80000694605481D
:10361000FDF700FD002000F007F8012000F004F89D
:1036200008BD0000000C014010B5044614B1012C87
:103630000CD105E04FF400510548FDF781FD05E090
:103640004FF480410248FDF77BFD00BF00BF10BD75
:10365000000C014010B5044614B1012C0CD105E05A
:103660004FF400510548FDF769FD05E04FF4804136
:103670000248FDF763FD00BF00BF10BD000C014014
:1036800010B503F01AFDFFF7ABFF03F0C1FC00F02B
:1036900005FFFFF727FC002010BD10B5044600F021
:1036A0008BFFFFF7EDFF10BD70B50446264800689C
:1036B000844204D2A122254925A000F057FF2C48BE
:1036C0000068844204D3A22220492AA000F04EFFC1
:1036D000608820B1A3221D4931A000F047FF1A499C
:1036E000606809684518AC4215D0688898B92048C8
:1036F000006885420FD02E480068A84201D12C48AE
:1037000004606868606010480068201A0E4A6968A2
:103710001268114488600C49A06809684618A642DE
:1037200011D0708878B922480068A04201D12048A1
:1037300006606068706004480068301A024A616878
:1037400012681144886070BDAC000020DC7C000869
:103750002872745F75696E74385F74202A296D65EC
:103760006D203E3D20686561705F707472000000DE
:10377000B00000202872745F75696E74385F742021
:103780002A296D656D203C202872745F75696E74FE
:10379000385F74202A29686561705F656E64000077
:1037A0006D656D2D3E75736564203D3D20300000D4
:1037B000B40000202DE9F04F86B00D469C46DDE9AF
:1037C000106401960F9B04F04008B8F1000F02D07E
:1037D000DFF8708101E0DFF87081CDF8008004F03F
:1037E0001008B8F1000F01D024F0010404F0010822
:1037F000B8F1000F02D04FF0300801E04FF0200880
:10380000C246002704F00208B8F1000F11D0002AC8
:1038100002DA2D2752420CE004F00408B8F1000F40
:1038200001D02B2705E004F00808B8F1000F00D004
:103830002027002142B94FF0300B8846491C0DF17A
:10384000080909F808B01DE01AE0E146B9F10A0FCD
:1038500008D14FF00A0BB2FBFBFE0BFB1E28B2FB9C
:10386000FBF202E002F00F08120900BFDDF8009041
:1038700019F808B08846491C0DF1080909F808B084
:10388000002AE2D1B14200DD0E469B1B04F0110874
:10389000B8F1000F10D117B1002B00DD5B1E06E060
:1038A000A84203D24FF0200880F80080401CB3F1FA
:1038B0000008A3F10103F3DC27B1A84200D207708E
:1038C0005B1E401C04F01008B8F1000F0AD104E0A0
:1038D000A84201D280F800A0401CB3F10008A3F177
:1038E0000103F5DC06E0A84203D24FF0300880F86F
:1038F0000080401CB046761E8845F4DC08E0A842F3
:1039000005D20DF1080818F8018080F80080401CED
:10391000B1F10008A1F1010104DDDDF80480B8F186
:10392000000FECD106E0A84203D24FF0200880F847
:103930000080401CB3F10008A3F10103F3DC06B0E2
:10394000BDE8F08FCB7C0008BA7C000800B58BB0D6
:1039500001210846FDF73CFC1148FDF7C7F9114865
:10396000019011480090002002904FF48060039075
:1039700000200490802005900020069007902020D1
:1039800008900002099000200A9069460448FDF75B
:1039900057FA01210248FDF79CF90BB000BD000069
:1039A00058000240F42100200438014030B5B3B083
:1039B0001E2500F0F1FC1DE0002000F0ABFB04210F
:1039C00029A000F021FC64223221684600F0E0FBCF
:1039D00084B2002C08DD00200DF8040024A1684604
:1039E000FCF74CFC00B107E040F6B83002F036FCC2
:1039F000E81EC5B2002DDFDC00BF15B9002033B0D2
:103A000030BD4FF47A7002F029FC062119A000F0B5
:103A1000FBFB64223221684600F0BAFB84B20D2120
:103A200016A000F0F1FB64223221684600F0B0FBE2
:103A300084B2082115A000F0E7FB6422C821684683
:103A400000F0A6FB84B2642000F064FB002C09DDCA
:103A500000200DF8040010A16846FCF70FFC08B127
:103A60000220CCE70020CAE741540D0A0000000004
:103A70004F4B0000415445300D0A000041542B4388
:103A8000574D4F44453D310D0A00000041542B472E
:103A90004D520D0A000000004553503832363600B2
:103AA00008B501210420FDF7C3FB4FF48060ADF899
:103AB000000003208DF8020004208DF80300694601
:103AC0000848FDF7A7FA4FF40070ADF80000032096
:103AD0008DF8020018208DF8030069460148FDF7B3
:103AE00099FA08BD0008014008B5002209A10E4856
:103AF00001F06CFB01200A230C4A0DA10090104834
:103B000001F05CF9FFF7CCFFFFF720FF00F02AF986
:103B100008BD000072662069662075617274206DB0
:103B2000757465780000000068210020CC21002019
:103B300072662069662064617461206D6200000015
:103B4000942100202DE9F043E7B00025002700264E
:103B5000A8466748007802281FD11BE06548007816
:103B600098B96548B0F8323100F5867200F1580115
:103B7000303003F0F1FA0746701CC0B20646032845
:103B800008DD03F0FFFC002604E0002640F6B83014
:103B900002F064FB002FE1D009E0002057490870D3
:103BA00040F6B83002F05AFB67B0BDE8F0835248E7
:103BB00090F86C00FF2803D100204F4981F86C0079
:103BC00000214D4880F8931090F89400FF2803D10D
:103BD0000020494981F894000021474880F80B11E2
:103BE0000026083000F18C0300F164024449009083
:103BF00001A8FEF709F839E001A8FCF767FB1FFAF6
:103C000080F96422494601A800F018FA41F288328E
:103C100066A93C4801F002F904463CBB66980128BD
:103C200020D1C82133A800F00FF90546002D19DD79
:103C3000002033A9485534A133A8FCF71FFB40B13D
:103C400001202E49087031A0FFF7BEF9FDF710FCE6
:103C500011E032A133A8FCF711FB18B1002027496D
:103C6000087008E04FF47A7002F0F8FA3046711CE0
:103C7000CEB20328C0DB00BF29E02A4801880088B3
:103C8000401C284A1080032908DB002011460880C8
:103C90001A49087024A0FFF797F91CE002F0C8FC4D
:103CA0008146434608F101084A4623A101A8FDF7D1
:103CB000ABFF01A8FCF70AFB1FFA80F96422494612
:103CC00001A800F081FB47F2305002F0C7FA0B4820
:103CD00000780128D1D000BF0848007828B90448EE
:103CE0000078022801D103F0D3FB00BF5CE700009D
:103CF0003C00002044000020302000203A0000203A
:103D0000987F0008942100206F6B00002B4C494ED7
:103D10004B3A310D0A4F4B0D0A0000006572726F6D
:103D2000720000003E0000202B4C494E4B3A300DF3
:103D30000A4F4B0D0A0000007B226D6574686F64AA
:103D4000223A226563686F222C2274696D65737450
:103D5000616D70223A25752C22736571223A2575A2
:103D60007D00000000B585B001218803FDF760FAF1
:103D70001C48FDF7A7FD4FF4E13001900020ADF89D
:103D80000800ADF80A00ADF80C00ADF810000C20EA
:103D9000ADF80E0001A91348FDF73EFE25208DF871
:103DA000000001208DF8010000208DF802000120A4
:103DB0008DF803006846FDF7C9F930210948FDF781
:103DC00063FD012240F224410648FDF700FE012276
:103DD00040210448FDF76DFD01210248FDF75DFD1E
:103DE00005B000BD0038014000B58BB02822124953
:103DF00001A8FCF725FAFFF777FEFFF7D7FD0F497B
:103E0000087008460078022813D10DF1090003F06C
:103E100059F901A90A48FCF760FA48B101A9084814
:103E2000FCF769FA9C22064908390648FFF728F989
:103E300000BF00BF0BB000BD6C7900083C00002043
:103E40003820002000FC01082DE9F041B4B00646FE
:103E50000F460024A04640480078022806D13A4682
:103E6000C82101A800F094F985B204E04FF0FF30BA
:103E700034B0BDE8F081002001A9485501A8FCF745
:103E800025FA85B225B1681E01A9085C7D2802D0FB
:103E90004FF0FF30ECE731A101A8FCF7EFF9044641
:103EA00014B1207A222802D04FF0FF30E0E7093425
:103EB00010222CA12046FCF727FAF0B92EA12046AB
:103EC000FCF7DCF9044614B1207A222802D04FF026
:103ED000FF30CDE7222104F10900FCF7EDF980461F
:103EE000A8EB0400093885B22A4604F109013046DE
:103EF000FCF7D6F9002070552CE0072220A12046BF
:103F0000FCF702FAE0B920A12046FCF7B7F9044615
:103F100014B1A079222802D04FF0FF30A8E7222167
:103F2000E01DFCF7C9F98046A8EB0400C01F85B26C
:103F30002A46E11D3046FCF7B3F90020705509E030
:103F4000042213A12046FCF7DFF918B9002012491A
:103F50000880002528B28BE73C0000206D6574685E
:103F60006F64000061757468656E7469636174657F
:103F70005F727370000000007374617475730000E9
:103F8000636F6E74726F6C00646174610000000096
:103F90006563686F000000003E00002030B59BB0F4
:103FA00000241E480078012832D1821E69461C4830
:103FB00000F034FF0546002D2ED1009801282BD1AA
:103FC000642101A8FFF740FF0446002C01DC1BB070
:103FD00030BD14A101A8FCF751F930B100200F4900
:103FE000087012A0FEF7F0FF16E001A8FEF7C4FE6D
:103FF0009DF804007B280FD1601E01A9085C7D2874
:104000000AD100200855214601A803F009FC03E06D
:104010004FF47A7002F022F900BFD8E73A0000208E
:1040200094210020434C4F53454400002B4C494EF3
:104030004B3A300D0A4F4B0D0A00000070B5CCB062
:1040400005460C46164614B11548007810B90020F4
:104050004CB070BD13A12846FCF710F920B915A18A
:104060002846FCF70BF928B12246294601A8FCF79F
:1040700017F905E02A4615A101A8FDF7C5FD84B290
:10408000002001A9085506480078022805D12146DC
:1040900001A800F0B9F820B2DAE74FF0FF30D7E717
:1040A0003C000020226D6574686F64223A226563CB
:1040B000686F2200226D6574686F64223A22617510
:1040C0007468656E74696361746522007B226D6536
:1040D00074686F64223A2273656E736F72222C20AB
:1040E0002264617461223A222573227D000000005F
:1040F000064B1988064B1A888A4202DB531A98B27B
:1041000003E0C1F58063134498B270474200002079
:104110004000002010B504464FF47A71174801F0B2
:1041200029F900B110BD002C02DD204602F096F8FE
:1041300000211348FDF7B1FB002240F22441104852
:10414000FDF745FC0F4800880F4908800022012137
:104150000E4800F0F3FD10210948FDF795FB012200
:1041600040F224410648FDF732FC01210448FDF7E6
:1041700094FB024801F056F800BFD3E76821002005
:10418000003801404000002042000020942100201F
:104190002DE9F04105460C461646FFF7A9FF0746F4
:1041A000BC420ADD002E05DD304602F057F8FFF76D
:1041B0009FFF0746BC4200DD3C4600200DE0104A50
:1041C00012881118CA1701EB92529212A1EB8222A7
:1041D0000C4B9A5C2A54411C88B2A042EFDB084980
:1041E00009880819C11700EB91518912A0EB8121B0
:1041F000034A11800020285520B2BDE8F08100005C
:1042000042000020F421002070B505460E464FF410
:104210007A710D4801F0AEF800B170BD00240CE0D9
:1042200000BF80210948FDF79BFB0028F9D0295DDC
:104230000648FDF762FC601C84B2B442F0DB024821
:1042400000F0F0FF00BFE8E76821002000380140DF
:1042500010B59C222F493048FEF7F0FE05222FA111
:104260002C480830FCF750F820B12CA12948083020
:10427000FCF741F8274890F86C00FF2805D0254846
:104280006C30FCF723F8282803D30020214981F85B
:104290006C00204890F89400FF2805D01D48943009
:1042A000FCF714F8782803D300201A4981F8940009
:1042B000184890F80C01FF2804D01A48FCF706F8BB
:1042C000262808D318A11748FCF715F846F6B2506F
:1042D0001049A1F832010F4890F83000FF2805D0AE
:1042E0000C483030FBF7F2FF282803D3002009499F
:1042F00081F83000074890F85800FF2805D005489D
:104300005830FBF7E3FF142803D30020014981F85C
:10431000580010BD3020002000FC010857494649D4
:104320003A0000003C2100206170692E7A686979AA
:10433000756E3336302E636F6D00000001E0FFF7BD
:1043400001FCFCE710B504461148007820B10128B3
:1043500006D0022819D107E00020FFF765F915E023
:104360000020FFF777F911E00A480078C0F101005A
:10437000084908700846007818B10020FFF76AF96C
:1043800002E00020FFF750F900E000BF00BF10BDC1
:104390003A0000203B00002010B5642001F05EFFD1
:1043A000032107A0FFF730FF642001F057FF02212F
:1043B00004A0FFF729FF6420FFF7ACFE10BD00004A
:1043C0002B2B2B000D0A00002DE9F04104460D4671
:1043D00016460F480078012805D14FF47A710D4830
:1043E00000F0C8FF18B14FF0FF30BDE8F0810120A8
:1043F000FFF730F9324629462046FFF71FFE0746F1
:104400000120FFF711F9034800F00CFF3846ECE7F4
:104410003A0000200420002008B500220FA1134814
:1044200000F0D4FE002212A1154800F0CFFEFFF7E5
:10443000DBFC02204FF4FA7300221249009012A014
:1044400002F0D0F90446204602F07CFA124801F04E
:10445000A3FF01E0FFF7A2FDFCE700007266207AEF
:1044600078626565206D757465780000D81F00203E
:1044700072662073656E64206D7574657800000047
:10448000042000204543000872665F6C696E6B5F14
:1044900074696D6572000000681800201FB5142053
:1044A00005214FF4DC62114BCDE90032CDE9021059
:1044B00000230F4A0FA1134801F092FE0446142076
:1044C00006214FF48062104BCDE90032CDE9021095
:1044D00000230E4A0EA1104801F082FE044624B9C2
:1044E0000D4801F059FF044600BF1FBDF818002019
:1044F0003D4300087266206C696E6B2077616974B9
:10450000000000006818002068140020194400080A
:10451000726620636F6D6D00D81300201CB51420E7
:104520000A214FF480630022CDE90010074908A05A
:1045300001F0F8FC044624B9C822074907A000F09E
:1045400015F8204601F028FF1CBD00009B3600082E
:104550006D61696E00000000947900087469642040
:10456000213D2052545F4E554C4C0000F8B5044696
:104570000D461646002000900748006828B900BF85
:104580009DF800000028FBD005E032462946204671
:10459000014B1B689847F8BDA000002010B5044CE3
:1045A00002E020688047241D02488442F9D310BDF0
:1045B000FC8100080082000810B5044C02E020686D
:1045C0008047241D02488442F9D310BD00820008B0
:1045D0000482000810B5FBF7A7FD044604480088D4
:1045E000401C00B2024908802046FBF7A1FD10BD27
:1045F0007C01002010B5FBF797FD04460C480088AD
:10460000401E00B20A4908800846B0F900000028A0
:104610000ADC002008802046FBF78AFD0548006878
:1046200028B101F0F3F802E02046FBF781FD10BD50
:104630007C0100208001002070B5054605B970BDE1
:1046400000BFFBF771FD064600F05EF928B140F2AD
:104650002922354935A0FFF789FF3046FBF768FD71
:1046600000BF05F0030028B140F22B222E4930A0F4
:10467000FFF77CFF3A480068854203D33948006859
:10468000854205D34FF40B7227493748FFF76EFF79
:1046900000BF3648006818B1284634490968884781
:1046A00000BF2F480068854203D32E48006885422A
:1046B00002D300BF00BFC2E7A5F10C0400BF00BFDA
:1046C0004FF0FF312A4801F04FFA608828B940F2D4
:1046D0004B22154927A0FFF749FF2088B0F5F55F69
:1046E00005D04FF41372104925A0FFF73FFF0020BB
:1046F00060804FF4F550208028480068844201D241
:1047000026480460164960680968611A401A2449FD
:104710000968081A224908602046FEF7C5FF1448B8
:1047200001F0DAF900BF8AE7107D000830000000D0
:1047300028282872745F75626173655F7429726DD1
:10474000656D292026202852545F414C49474E5F11
:1047500053495A45202D20312929203D3D20300044
:10476000AC000020B000002014810008A800002048
:104770005C2C00206D656D2D3E7573656400000036
:104780006D656D2D3E6D61676963203D3D20484537
:1047900041505F4D4147494300000000B4000020F4
:1047A000BC00002070B54FF4A060FCF707FD17486F
:1047B00000684FF47A72B0FBF2F1B1F1807F00D360
:1047C0001DE021F07F40401E4FF0E0225061501765
:1047D0000F22002807DA13071D0E0D4B00F00F04FF
:1047E000241F1D5503E013071C0E0A4B1C5400BF69
:1047F00000204FF0E02290610720106100BFFFF71A
:10480000CDFE0549054801F07FFA70BD5400002037
:1048100018ED00E000E400E00050002088310020A6
:1048200070B50446261D0648006838B12046044984
:1048300009688847054605B970BD00BF00BFFEE79F
:1048400088000020F0B504460D461646301D20F0C5
:10485000070040380146002203E00C4F41F8227067
:10486000521C102AF9D30D624FF0000CC1F824C07D
:10487000C1F828C0C1F82CC0C1F830C04B638C63AC
:104880004FF0807CC1F83CC0F0BD0000EFBEADDE53
:10489000F0B502464FF0E026B16974690A4E3668F9
:1048A0000A4FB6FBF7F500BF4FF0E026B069814232
:1048B00001D90E1A01E06618361A334605FB02F6D6
:1048C0009E42F1D8F0BD00005400002040420F008D
:1048D00010B500BF00BFFBF727FC0446084800786E
:1048E000401C0749087000BF0648006810B1054821
:1048F0000068804700BF2046FBF71AFC10BD00008F
:10490000980000209000002070B5FBF70DFC0546D4
:10491000034804782846FBF70BFC204670BD0000D6
:104920009800002010B500BF00BFFBF7FDFB044658
:1049300008480078401E0749087000BF0648006814
:1049400010B105480068804700BF2046FBF7F0FB28
:1049500010BD0000980000209400002070B50446AF
:104960002068A0F11C0500BF00BF284601F080FCB4
:10497000002070BD70B505460EE0FBF7D5FB06467E
:104980002868A0F11C044FF0FF30A063204601F01E
:104990006FFC3046FBF7CCFB284600F067F8002898
:1049A000EBD0002070BD2DE9F04105460C46904645
:1049B000204601F053FDB8F1000F03D0B8F1010F0C
:1049C00023D105E004F11C01284600F048F81CE062
:1049D0002E680FE0A6F11C0794F83D0097F83D10F3
:1049E000884206DA04F11C0107F11C0000F037F8D8
:1049F00002E03668AE42EDD100BFAE4204D104F110
:104A00001C01284600F02BF800BF00BF0020BDE8C5
:104A1000F08110B5044604F11C0000F002F80020FB
:104A200010BD4060006070474060006070474060AB
:104A3000006070470268516002680A600160486067
:104A400070470268516002680A6001604860704700
:104A50000268516002680A600160486070474268FD
:104A6000116042684A60416008607047014608680A
:104A7000884201D1012070470020FCE70146086808
:104A8000884201D1012070470020FCE7D0E90021D5
:104A90005160D0E900121160406000607047D0E9B9
:104AA00000215160D0E90012116040600060704741
:104AB0002DE9F047054615B90020BDE8F08700BF95
:104AC000FBF732FB8146FFF71FFF28B14FF48C72D2
:104AD000784979A0FFF74AFD4846FBF729FB00BF5C
:104AE000E81C20F00300A84201D000BF01E000BF95
:104AF00000BFE81C20F0030570480068854203D918
:104B000000BF00BF0020D8E70C2D00D20C254FF0CD
:104B1000FF316B4801F028F86A4800686A49096863
:104B2000461ABBE0684800688419608800287BD179
:104B300006F10C006168081AA84275D306F10C0052
:104B40006168091A05F11800814230D306F10C00A2
:104B500000EB05085C48006800EB08074FF4F550CF
:104B600038800020788060687860BE60C4F8048077
:104B7000012060805148796800680C30814205D07E
:104B80005149786809680844C0F808804F480168AE
:104B900005F10C0008444D4908604D48006809685B
:104BA000884219D2494800684949086014E0012048
:104BB0006080454960680968611A401A434909687C
:104BC000084442490860424800680968884203D2A4
:104BD0003E4800683E4908604FF4F550208039484F
:104BE0000068844224D107E03648006840683649AE
:104BF000096808443349086032480068408828B191
:104C000030480068334909688842EDD12D48006872
:104C10003049096888420BD02A480068408838B17A
:104C20004FF4C172234900E034E02BA0FFF79EFC53
:104C3000234800F051FF04F10C002844254909687D
:104C4000884205D94FF4C3721A492D48FFF78EFCEC
:104C500004F0030028B140F2871216492948FFF7F3
:104C600085FC04F0030028B14FF4C472114926A05A
:104C7000FFF77CFC00BF00BF00BF2F48006828B1D1
:104C8000294604F10C002C4A1268904700BF04F139
:104C90000C0012E70C48006830444668074800687A
:104CA000401BB0423FF63EAF054800F015FF002024
:104CB00003E70000FB7C000830000000B800002083
:104CC0005C2C0020B4000020AC000020BC000020C0
:104CD000C0000020B000002028286C6672656520A6
:104CE0003D3D20686561705F656E6429207C7C2095
:104CF00028216C667265652D3E75736564292900EF
:104D000070810008C880000828282872745F7562C6
:104D10006173655F74296D656D29202620285254C2
:104D20005F414C49474E5F53495A45202D20312958
:104D300029203D3D20300000A40000202DE9F04155
:104D400004460D4617462CB940F2C362154916A019
:104D5000FFF70CFC204600F0C3FC052805D040F20C
:104D6000C46210491448FFF701FC012D16D1FBF76E
:104D7000DBF9064604F11C00FFF7FCFD04F13000EE
:104D8000FFF7F8FD00206085A085E0853046FBF741
:104D9000CFF900F03BFD0020BDE8F0814FF0FF307F
:104DA000FAE70000447B00086D6220213D20525448
:104DB0005F4E554C4C000000848000082DE9F04106
:104DC00004460D4616461F46DDF818802CB940F201
:104DD00014520D490DA0FFF7C9FB2A4605212046B4
:104DE00000F098FC84F811802046FFF712FE6662FE
:104DF000278500206085A085E08504F13000FFF75D
:104E000010FE0020BDE8F081F77A00086D622021D5
:104E10003D2052545F4E554C4C0000002DE9F74F99
:104E200004460F462CB940F23D62624962A0FFF78A
:104E30009DFB204600F054FC052805D040F23E6260
:104E40005C496148FFF792FB002601F05FFA0546D6
:104E500000BF5E48006818B120465C490968884771
:104E600000BFFBF761F98046608D40B9029830B908
:104E70004046FBF75DF96FF00100BDE8FE8F5EE094
:104E80000020A863029830B94046FBF751F96FF053
:104E90000100A863F1E700BFFBF746F9814601F086
:104EA00035FA28B940F26362424949A0FFF75EFB38
:104EB00000BFFBF739F98246FFF726FD28B140F223
:104EC00063623C4942A0FFF751FB5046FBF730F9C3
:104ED00000BF4846FBF72CF900BF627C294604F16D
:104EE0001C00FFF760FD029800280EDD01F0A0FB1A
:104EF000064600BF00BF02AA002105F1540001F0E0
:104F000015FC05F1540001F01DFD4046FBF710F9BA
:104F100000F07CFCA86B08B1A86BAEE7FBF704F9C6
:104F20008046029800280ADD01F082FB861B029869
:104F3000801B02900298002801DA00200290608D08
:104F400000289DD0E18D606A50F821003860E08D26
:104F5000401CE085E08D218D884201DB0020E0854A
:104F6000608D401E608504F13000FFF77FFD98B929
:104F700004F13000FFF7F2FC4046FBF7D9F800BF20
:104F80001448006818B1204612490968884700BFD4
:104F900000F03CFC002070E74046FBF7C9F800BF7A
:104FA0000C48006818B120460A490968884700BFC4
:104FB000002062E7397B00086D6220213D205254B9
:104FC0005F4E554C4C000000848000086C010020AE
:104FD000300000007001002070B504460D4600222C
:104FE0002946204600F002F870BD00002DE9F74F79
:104FF00004460F462CB940F2AB525A495AA0FFF76B
:10500000B5FA204600F06CFB052805D040F2AC5202
:1050100054495948FFF7AAFA002601F077F90546E6
:1050200000BF5648006818B12046544909688847AF
:1050300000BFFBF779F88046608D218D884208D14A
:10504000029830B94046FBF773F86FF00200BDE8F4
:10505000FE8F5DE00020A863029828B94046FBF768
:1050600067F86FF00200F2E700BFFBF75DF88146DA
:1050700001F04CF928B940F2CF523A4940A0FFF76D
:1050800075FA00BFFBF750F88246FFF73DFC28B1E8
:1050900040F2CF5233493AA0FFF768FA5046FBF787
:1050A00047F800BF4846FBF743F800BF627C29463B
:1050B00004F13000FFF777FC029800280EDD01F0C4
:1050C000B7FA064600BF00BF02AA002105F154004E
:1050D00001F02CFB05F1540001F034FC4046FBF7D5
:1050E00027F800F093FBA86B08B1A86BAFE7FBF7BC
:1050F0001BF88046029800280ADD01F099FA861B09
:105100000298801B02900298002801DA0020029089
:10511000608D218D88429DD0A18D606A40F82170FC
:10512000A08D401CA085A08D218D884201DB002030
:10513000A085608D401C608504F11C00FFF796FC83
:1051400050B904F11C00FFF709FC4046FAF7F0FFE4
:1051500000F05CFB00207AE74046FAF7E9FF002008
:1051600075E70000297B00086D6220213D20525424
:105170005F4E554C4C0000008480000874010020F4
:1051800030000000F0B50C460546E6B2042A15D3FF
:1051900000F0030797B9014646EA062343EA0343B2
:1051A00004E008C108C108C108C1103A102AF8D2A9
:1051B00001E008C1121F042AFBD20D4601E005F8E8
:1051C000016B171EA2F10102F9D1F0BD70B50446C2
:1051D0000D4616462CB940F215220C490CA0FFF7DB
:1051E000C5F92A460321204600F094FA2046FFF72D
:1051F00010FC0120A0840020A062FF2084F826007B
:10520000002084F82700667470BD00001E7A000834
:105210006D7574657820213D2052545F4E554C4C7D
:10522000000000002DE9F04704462CB940F21D3281
:10523000474948A0FFF79AF9204600F051FA0328A1
:1052400005D040F21E3242494748FFF78FF9002649
:1052500000BFFAF769FF804601F058F828B940F21C
:1052600023323B4941A0FFF781F900BFFAF75CFF09
:105270008146FFF749FB28B140F2233234493BA075
:10528000FFF774F94846FAF753FF00BF4046FAF7B4
:105290004FFF00BF01F03AF80546FAF745FF074611
:1052A00000BF00BF00BF3248006818B12046304937
:1052B0000968884700BFA06AA84209D04FF0FF30B4
:1052C000A8633846FAF734FF4FF0FF30BDE8F087A7
:1052D00014F8270F401E207014F8270928BB94F8F3
:1052E0002600A16A91F83D10884205D004F12602FB
:1052F0000221A06A00F0BAFD04F11C00FFF7B6FB22
:10530000A0B9E069A0F11C0500BF00BFA56295F837
:105310003D0084F8260094F82700401C84F82700FC
:1053200004F11C00FFF71AFB012607E0A08C401CCB
:10533000A0840020A062FF2084F826003846FAF7F7
:10534000F7FE012E01D100F061FA0020BEE7000057
:105350006A7A00086D7574657820213D2052545F8B
:105360004E554C4C0000000040800008300000000A
:10537000740100202DE9F341044600BFFAF7D4FE82
:10538000074600F0C3FF28B94FF42572524953A0D5
:10539000FFF7ECF800BFFAF7C7FE8046FFF7B4FA54
:1053A00028B14FF425724C494CA0FFF7DFF8404676
:1053B000FAF7BEFE00BF3846FAF7BAFE00BF2CB9B6
:1053C00040F29722444946A0FFF7D0F8204600F06B
:1053D00087F9032805D04FF426723F494548FFF767
:1053E000C5F800F093FF0546FAF79EFE064600BF9B
:1053F0004148006818B120463F490968884700BF06
:1054000000BF00BF0020A863A06AA84205D194F89D
:105410002700401C84F8270050E000BFA08C002823
:105420000CDD34F8240F401E2080656095F83D00A7
:10543000A070E078401CE070243C3FE0019848B93F
:105440006FF00100A8633046FAF772FE6FF00100BA
:10545000BDE8FC8100BF00BF95F83D00A16A91F84E
:105460003D10884205DA05F13D020221A06A00F0F4
:10547000FDFC627C294604F11C00FFF794FA0198B8
:1054800000280BDD00BF00BF01AA002105F1540078
:1054900001F04CF905F1540001F054FA3046FAF7E6
:1054A00047FE00F0B3F9A86B28B1A86B093000B92A
:1054B000B4E7A86BCCE7FAF737FE06463046FAF7B2
:1054C00037FE00BF0D48006818B120460B49096837
:1054D000884700BF0020BBE75C7A0008300000006E
:1054E0006D7574657820213D2052545F4E554C4CAB
:1054F00000000000408000086C01002070010020C6
:105500002DE9F04706460F4600BFFAF70DFE81462B
:10551000FFF7FAF928B140F25B121F491FA0FFF70D
:1055200025F84846FAF704FE00BF304600F0C4F8FC
:1055300005462DB940F25F12174919A0FFF716F87A
:10554000E868FFF7B5FA044614B90020BDE8F08713
:1055500000212046EA68FFF715FE267400206074DB
:1055600010223946204600F0B4FB00BF1248006804
:1055700018B1204610490968884700BFFAF7D4FDE2
:10558000804604F11401281DFFF754FA4046FAF74B
:10559000CFFD2046DAE70000387D0008300000002B
:1055A000696E666F726D6174696F6E20213D205265
:1055B000545F4E554C4C00006401002070B5044609
:1055C0002CB940F29912134913A0FEF7CFFF207CAB
:1055D00000F0800028B14FF4CD720E4913A0FEF701
:1055E000C5FF00BF1C48006818B120461A49096869
:1055F000884700BF00202074FAF796FD054604F1A5
:105600001400FFF743FA2846FAF792FD2046FFF709
:1056100013F870BD4B7D00086F626A6563742021CA
:105620003D2052545F4E554C4C00000021286F62C3
:105630006A6563742D3E7479706520262052545F2C
:105640004F626A6563745F436C6173735F53746127
:1056500074696329000000006801002070B50446E9
:105660002CB94FF49C720D490DA0FEF77FFF00BFCF
:105670001048006818B120460E490968884700BFE5
:1056800000202074FAF750FD054604F11400FFF7DE
:10569000FDF92846FAF74CFD70BD0000277D000893
:1056A0006F626A65637420213D2052545F4E554CF1
:1056B0004C00000068010020024600210AE0074873
:1056C00000EB01100078904203D1044800EB011078
:1056D0007047491C0A29F2DB0020F9E7C4000020CA
:1056E00010B504462CB94FF4E772044904A0FEF744
:1056F0003DFF207C20F0800010BD0000767D00087A
:105700006F626A65637420213D2052545F4E554C90
:105710004C0000002DE9F04704460E469046002755
:105720003046FFF7C9FF054625B9FB221C491DA0DD
:10573000FEF71CFFFEF74EFF6F680DE0A7F114099E
:10574000B9F1000F07D0A14505D140F20B12144961
:105750001AA0FEF70BFF3F68281D8742EED1FEF727
:1057600049FF46F08000207410224146204600F098
:10577000B0FA00BF1548006818B1204613490968FF
:10578000884700BFFAF7D0FC824604F11401281DB7
:10579000FFF750F95046FAF7CBFCBDE8F087000060
:1057A000187D0008696E666F726D6174696F6E2096
:1057B000213D2052545F4E554C4C00006F626A20D0
:1057C000213D206F626A656374000000640100205F
:1057D00010B504462CB940F2BB12064906A0FEF7EC
:1057E000C5FE207C00F0800008B1012010BD002023
:1057F000FCE700005C7D00086F626A65637420212D
:105800003D2052545F4E554C4C000000F8B5FAF75D
:105810008BFC064648480088002874D14748006839
:10582000002871D000276846FCF718FB044644485E
:10583000006890F83C0000F00700032825D140489C
:10584000006890F83D000099884202D23C48046804
:105850001BE03B48006890F83D000099884209D160
:105860003748006890F83C0000F0080010B9344850
:1058700004680AE03248006890F83C0020F0080014
:105880002F49096881F83C0001272D4800688442AF
:105890003BD02C490098087029480568046000BF77
:1058A0002948006820B121462846274A12689047B7
:1058B00000BF17B1284600F04BF8204600F096F8DC
:1058C00094F83C0020F0070040F0030084F83C000E
:1058D00000BF00BF2046FCF781FE1C48007848B995
:1058E00004F1240105F12400FAF725FC3046FAF70B
:1058F0001FFC20E000BF00BF04F1240105F12400DB
:10590000FAF719FC11E012E010E00D48006800F011
:105910006DF80B48006890F83C0020F0070040F05C
:1059200003000749096881F83C0000BF00BF30460A
:10593000FAF7FEFB00BFF8BD7C01002078010020D3
:1059400080010020840100209001002098000020A8
:1059500070B504462CB94FF432721B491BA0FEF7F8
:1059600005FEFAF7E1FB05461D480068844208D1B0
:1059700094F83C0020F0070040F0030084F83C005D
:105980001DE014F83C0F20F0070040F001002070EB
:1059900062783C3C134B03EBC20004F11C014268EB
:1059A000116042684A604160086000BF00BF00BFEC
:1059B0000D49206C096808430B49086000BF284660
:1059C000FAF7B6FB70BD0000B27D0008746872651E
:1059D000616420213D2052545F4E554C4C00000024
:1059E00080010020842C00207801002070B504463E
:1059F0002CB940F22932154915A0FEF7B7FDFAF788
:105A000093FB054600BF00BF04F11C00D0E9002154
:105A10005160D0E9001211604060006000BF94F84E
:105A20003D10104A02EBC1000168814201D1012101
:105A300000E0002129B10C48216C006888430A4924
:105A400008602846FAF774FB70BD0000CC7D0008A2
:105A500074687265616420213D2052545F4E554C3C
:105A60004C000000842C0020780100202DE9F0413A
:105A700004460E4615461F4624B9CC220C490DA0FB
:105A8000FEF774FDB5F5803F04D3CD2208490DA083
:105A9000FEF76CFD324602212046FFF73BFE204612
:105AA000FEF7B7FFA58467740020BDE8F081000011
:105AB000BE79000873656D20213D2052545F4E551C
:105AC0004C4C000076616C7565203C20307831309C
:105AD000303030550000000070B504462CB940F25B
